{
  "abi": [
    {
      "type": "constructor",
      "inputs": [],
      "stateMutability": "nonpayable"
    },
    {
      "type": "function",
      "name": "approve",
      "inputs": [
        {
          "name": "to",
          "type": "address",
          "internalType": "address"
        },
        {
          "name": "tokenId",
          "type": "uint256",
          "internalType": "uint256"
        }
      ],
      "outputs": [],
      "stateMutability": "nonpayable"
    },
    {
      "type": "function",
      "name": "balanceOf",
      "inputs": [
        {
          "name": "owner",
          "type": "address",
          "internalType": "address"
        }
      ],
      "outputs": [
        {
          "name": "",
          "type": "uint256",
          "internalType": "uint256"
        }
      ],
      "stateMutability": "view"
    },
    {
      "type": "function",
      "name": "createMarketSale",
      "inputs": [
        {
          "name": "tokenId",
          "type": "uint256",
          "internalType": "uint256"
        }
      ],
      "outputs": [],
      "stateMutability": "payable"
    },
    {
      "type": "function",
      "name": "createToken",
      "inputs": [
        {
          "name": "tokenURI",
          "type": "string",
          "internalType": "string"
        },
        {
          "name": "price",
          "type": "uint256",
          "internalType": "uint256"
        }
      ],
      "outputs": [
        {
          "name": "",
          "type": "uint256",
          "internalType": "uint256"
        }
      ],
      "stateMutability": "payable"
    },
    {
      "type": "function",
      "name": "fetchItemsListed",
      "inputs": [],
      "outputs": [
        {
          "name": "",
          "type": "tuple[]",
          "internalType": "struct NFTMarketplace.MarketItem[]",
          "components": [
            {
              "name": "tokenId",
              "type": "uint256",
              "internalType": "uint256"
            },
            {
              "name": "seller",
              "type": "address",
              "internalType": "address payable"
            },
            {
              "name": "owner",
              "type": "address",
              "internalType": "address payable"
            },
            {
              "name": "price",
              "type": "uint256",
              "internalType": "uint256"
            },
            {
              "name": "sold",
              "type": "bool",
              "internalType": "bool"
            }
          ]
        }
      ],
      "stateMutability": "view"
    },
    {
      "type": "function",
      "name": "fetchMarketItems",
      "inputs": [],
      "outputs": [
        {
          "name": "",
          "type": "tuple[]",
          "internalType": "struct NFTMarketplace.MarketItem[]",
          "components": [
            {
              "name": "tokenId",
              "type": "uint256",
              "internalType": "uint256"
            },
            {
              "name": "seller",
              "type": "address",
              "internalType": "address payable"
            },
            {
              "name": "owner",
              "type": "address",
              "internalType": "address payable"
            },
            {
              "name": "price",
              "type": "uint256",
              "internalType": "uint256"
            },
            {
              "name": "sold",
              "type": "bool",
              "internalType": "bool"
            }
          ]
        }
      ],
      "stateMutability": "view"
    },
    {
      "type": "function",
      "name": "fetchMyNFTs",
      "inputs": [],
      "outputs": [
        {
          "name": "",
          "type": "tuple[]",
          "internalType": "struct NFTMarketplace.MarketItem[]",
          "components": [
            {
              "name": "tokenId",
              "type": "uint256",
              "internalType": "uint256"
            },
            {
              "name": "seller",
              "type": "address",
              "internalType": "address payable"
            },
            {
              "name": "owner",
              "type": "address",
              "internalType": "address payable"
            },
            {
              "name": "price",
              "type": "uint256",
              "internalType": "uint256"
            },
            {
              "name": "sold",
              "type": "bool",
              "internalType": "bool"
            }
          ]
        }
      ],
      "stateMutability": "view"
    },
    {
      "type": "function",
      "name": "getApproved",
      "inputs": [
        {
          "name": "tokenId",
          "type": "uint256",
          "internalType": "uint256"
        }
      ],
      "outputs": [
        {
          "name": "",
          "type": "address",
          "internalType": "address"
        }
      ],
      "stateMutability": "view"
    },
    {
      "type": "function",
      "name": "getListingPrice",
      "inputs": [],
      "outputs": [
        {
          "name": "",
          "type": "uint256",
          "internalType": "uint256"
        }
      ],
      "stateMutability": "view"
    },
    {
      "type": "function",
      "name": "isApprovedForAll",
      "inputs": [
        {
          "name": "owner",
          "type": "address",
          "internalType": "address"
        },
        {
          "name": "operator",
          "type": "address",
          "internalType": "address"
        }
      ],
      "outputs": [
        {
          "name": "",
          "type": "bool",
          "internalType": "bool"
        }
      ],
      "stateMutability": "view"
    },
    {
      "type": "function",
      "name": "name",
      "inputs": [],
      "outputs": [
        {
          "name": "",
          "type": "string",
          "internalType": "string"
        }
      ],
      "stateMutability": "view"
    },
    {
      "type": "function",
      "name": "ownerOf",
      "inputs": [
        {
          "name": "tokenId",
          "type": "uint256",
          "internalType": "uint256"
        }
      ],
      "outputs": [
        {
          "name": "",
          "type": "address",
          "internalType": "address"
        }
      ],
      "stateMutability": "view"
    },
    {
      "type": "function",
      "name": "resellToken",
      "inputs": [
        {
          "name": "tokenId",
          "type": "uint256",
          "internalType": "uint256"
        },
        {
          "name": "price",
          "type": "uint256",
          "internalType": "uint256"
        }
      ],
      "outputs": [],
      "stateMutability": "payable"
    },
    {
      "type": "function",
      "name": "safeTransferFrom",
      "inputs": [
        {
          "name": "from",
          "type": "address",
          "internalType": "address"
        },
        {
          "name": "to",
          "type": "address",
          "internalType": "address"
        },
        {
          "name": "tokenId",
          "type": "uint256",
          "internalType": "uint256"
        }
      ],
      "outputs": [],
      "stateMutability": "nonpayable"
    },
    {
      "type": "function",
      "name": "safeTransferFrom",
      "inputs": [
        {
          "name": "from",
          "type": "address",
          "internalType": "address"
        },
        {
          "name": "to",
          "type": "address",
          "internalType": "address"
        },
        {
          "name": "tokenId",
          "type": "uint256",
          "internalType": "uint256"
        },
        {
          "name": "data",
          "type": "bytes",
          "internalType": "bytes"
        }
      ],
      "outputs": [],
      "stateMutability": "nonpayable"
    },
    {
      "type": "function",
      "name": "setApprovalForAll",
      "inputs": [
        {
          "name": "operator",
          "type": "address",
          "internalType": "address"
        },
        {
          "name": "approved",
          "type": "bool",
          "internalType": "bool"
        }
      ],
      "outputs": [],
      "stateMutability": "nonpayable"
    },
    {
      "type": "function",
      "name": "supportsInterface",
      "inputs": [
        {
          "name": "interfaceId",
          "type": "bytes4",
          "internalType": "bytes4"
        }
      ],
      "outputs": [
        {
          "name": "",
          "type": "bool",
          "internalType": "bool"
        }
      ],
      "stateMutability": "view"
    },
    {
      "type": "function",
      "name": "symbol",
      "inputs": [],
      "outputs": [
        {
          "name": "",
          "type": "string",
          "internalType": "string"
        }
      ],
      "stateMutability": "view"
    },
    {
      "type": "function",
      "name": "tokenURI",
      "inputs": [
        {
          "name": "tokenId",
          "type": "uint256",
          "internalType": "uint256"
        }
      ],
      "outputs": [
        {
          "name": "",
          "type": "string",
          "internalType": "string"
        }
      ],
      "stateMutability": "view"
    },
    {
      "type": "function",
      "name": "transferFrom",
      "inputs": [
        {
          "name": "from",
          "type": "address",
          "internalType": "address"
        },
        {
          "name": "to",
          "type": "address",
          "internalType": "address"
        },
        {
          "name": "tokenId",
          "type": "uint256",
          "internalType": "uint256"
        }
      ],
      "outputs": [],
      "stateMutability": "nonpayable"
    },
    {
      "type": "function",
      "name": "udateListingPrice",
      "inputs": [
        {
          "name": "_listingPrice",
          "type": "uint256",
          "internalType": "uint256"
        }
      ],
      "outputs": [],
      "stateMutability": "payable"
    },
    {
      "type": "event",
      "name": "Approval",
      "inputs": [
        {
          "name": "owner",
          "type": "address",
          "indexed": true,
          "internalType": "address"
        },
        {
          "name": "approved",
          "type": "address",
          "indexed": true,
          "internalType": "address"
        },
        {
          "name": "tokenId",
          "type": "uint256",
          "indexed": true,
          "internalType": "uint256"
        }
      ],
      "anonymous": false
    },
    {
      "type": "event",
      "name": "ApprovalForAll",
      "inputs": [
        {
          "name": "owner",
          "type": "address",
          "indexed": true,
          "internalType": "address"
        },
        {
          "name": "operator",
          "type": "address",
          "indexed": true,
          "internalType": "address"
        },
        {
          "name": "approved",
          "type": "bool",
          "indexed": false,
          "internalType": "bool"
        }
      ],
      "anonymous": false
    },
    {
      "type": "event",
      "name": "BatchMetadataUpdate",
      "inputs": [
        {
          "name": "_fromTokenId",
          "type": "uint256",
          "indexed": false,
          "internalType": "uint256"
        },
        {
          "name": "_toTokenId",
          "type": "uint256",
          "indexed": false,
          "internalType": "uint256"
        }
      ],
      "anonymous": false
    },
    {
      "type": "event",
      "name": "MarketItemCreated",
      "inputs": [
        {
          "name": "tokenId",
          "type": "uint256",
          "indexed": true,
          "internalType": "uint256"
        },
        {
          "name": "seller",
          "type": "address",
          "indexed": false,
          "internalType": "address"
        },
        {
          "name": "owner",
          "type": "address",
          "indexed": false,
          "internalType": "address"
        },
        {
          "name": "price",
          "type": "uint256",
          "indexed": false,
          "internalType": "uint256"
        },
        {
          "name": "sold",
          "type": "bool",
          "indexed": false,
          "internalType": "bool"
        }
      ],
      "anonymous": false
    },
    {
      "type": "event",
      "name": "MetadataUpdate",
      "inputs": [
        {
          "name": "_tokenId",
          "type": "uint256",
          "indexed": false,
          "internalType": "uint256"
        }
      ],
      "anonymous": false
    },
    {
      "type": "event",
      "name": "Transfer",
      "inputs": [
        {
          "name": "from",
          "type": "address",
          "indexed": true,
          "internalType": "address"
        },
        {
          "name": "to",
          "type": "address",
          "indexed": true,
          "internalType": "address"
        },
        {
          "name": "tokenId",
          "type": "uint256",
          "indexed": true,
          "internalType": "uint256"
        }
      ],
      "anonymous": false
    },
    {
      "type": "error",
      "name": "ERC721IncorrectOwner",
      "inputs": [
        {
          "name": "sender",
          "type": "address",
          "internalType": "address"
        },
        {
          "name": "tokenId",
          "type": "uint256",
          "internalType": "uint256"
        },
        {
          "name": "owner",
          "type": "address",
          "internalType": "address"
        }
      ]
    },
    {
      "type": "error",
      "name": "ERC721InsufficientApproval",
      "inputs": [
        {
          "name": "operator",
          "type": "address",
          "internalType": "address"
        },
        {
          "name": "tokenId",
          "type": "uint256",
          "internalType": "uint256"
        }
      ]
    },
    {
      "type": "error",
      "name": "ERC721InvalidApprover",
      "inputs": [
        {
          "name": "approver",
          "type": "address",
          "internalType": "address"
        }
      ]
    },
    {
      "type": "error",
      "name": "ERC721InvalidOperator",
      "inputs": [
        {
          "name": "operator",
          "type": "address",
          "internalType": "address"
        }
      ]
    },
    {
      "type": "error",
      "name": "ERC721InvalidOwner",
      "inputs": [
        {
          "name": "owner",
          "type": "address",
          "internalType": "address"
        }
      ]
    },
    {
      "type": "error",
      "name": "ERC721InvalidReceiver",
      "inputs": [
        {
          "name": "receiver",
          "type": "address",
          "internalType": "address"
        }
      ]
    },
    {
      "type": "error",
      "name": "ERC721InvalidSender",
      "inputs": [
        {
          "name": "sender",
          "type": "address",
          "internalType": "address"
        }
      ]
    },
    {
      "type": "error",
      "name": "ERC721NonexistentToken",
      "inputs": [
        {
          "name": "tokenId",
          "type": "uint256",
          "internalType": "uint256"
        }
      ]
    }
  ],
  "bytecode": {
    "object": "0x60806040526658d15e1762800060095534801561001a575f5ffd5b506040518060400160405280600f81526020016e4d6574615665727365546f6b656e7360881b8152506040518060400160405280600381526020016213559560ea1b815250815f908161006d919061012c565b50600161007a828261012c565b5050600a80546001600160a01b03191633179055506101e6565b634e487b7160e01b5f52604160045260245ffd5b600181811c908216806100bc57607f821691505b6020821081036100da57634e487b7160e01b5f52602260045260245ffd5b50919050565b601f82111561012757805f5260205f20601f840160051c810160208510156101055750805b601f840160051c820191505b81811015610124575f8155600101610111565b50505b505050565b81516001600160401b0381111561014557610145610094565b6101598161015384546100a8565b846100e0565b6020601f82116001811461018b575f83156101745750848201515b5f19600385901b1c1916600184901b178455610124565b5f84815260208120601f198516915b828110156101ba578785015182556020948501946001909201910161019a565b50848210156101d757868401515f19600387901b60f8161c191681555b50505050600190811b01905550565b611eb9806101f35f395ff3fe608060405260043610610126575f3560e01c806345f8fa80116100a8578063a22cb4651161006d578063a22cb465146102f4578063b88d4fde14610313578063be9af53614610332578063c87b56dd14610345578063e219fc7514610364578063e985e9c514610377575f5ffd5b806345f8fa801461027b5780636352211e1461028f57806370a08231146102ae57806372b3b620146102cd57806395d89b41146102e0575f5ffd5b80630f08efe0116100ee5780630f08efe0146101ea57806312e855851461020b578063202e37401461022957806323b872dd1461023d57806342842e0e1461025c575f5ffd5b806301ffc9a71461012a57806306fdde031461015e578063081812fc1461017f578063095ea7b3146101b65780630d5bd58f146101d7575b5f5ffd5b348015610135575f5ffd5b506101496101443660046118d0565b610396565b60405190151581526020015b60405180910390f35b348015610169575f5ffd5b506101726103c0565b6040516101559190611919565b34801561018a575f5ffd5b5061019e61019936600461192b565b61044f565b6040516001600160a01b039091168152602001610155565b3480156101c1575f5ffd5b506101d56101d036600461195d565b610476565b005b6101d56101e536600461192b565b610485565b3480156101f5575f5ffd5b506101fe6104f9565b6040516101559190611985565b348015610216575f5ffd5b506009545b604051908152602001610155565b348015610234575f5ffd5b506101fe61067c565b348015610248575f5ffd5b506101d5610257366004611a04565b61082f565b348015610267575f5ffd5b506101d5610276366004611a04565b6108b8565b348015610286575f5ffd5b506101fe6108d7565b34801561029a575f5ffd5b5061019e6102a936600461192b565b610a8a565b3480156102b9575f5ffd5b5061021b6102c8366004611a3e565b610a94565b61021b6102db366004611ae2565b610ad9565b3480156102eb575f5ffd5b50610172610b19565b3480156102ff575f5ffd5b506101d561030e366004611b37565b610b28565b34801561031e575f5ffd5b506101d561032d366004611b70565b610b33565b6101d561034036600461192b565b610b4b565b348015610350575f5ffd5b5061017261035f36600461192b565b610cab565b6101d5610372366004611be7565b610db6565b348015610382575f5ffd5b50610149610391366004611c07565b610e99565b5f6001600160e01b03198216632483248360e11b14806103ba57506103ba82610ec6565b92915050565b60605f80546103ce90611c38565b80601f01602080910402602001604051908101604052809291908181526020018280546103fa90611c38565b80156104455780601f1061041c57610100808354040283529160200191610445565b820191905f5260205f20905b81548152906001019060200180831161042857829003601f168201915b5050505050905090565b5f61045982610f15565b505f828152600460205260409020546001600160a01b03166103ba565b610481828233610f4d565b5050565b600a546001600160a01b031633146104f45760405162461bcd60e51b815260206004820152602760248201527f4f6e6c79206f776e65722063616e2075706461746520746865206c697374696e6044820152666720707269636560c81b60648201526084015b60405180910390fd5b600955565b60605f61050560075490565b90505f61051160085490565b60075461051e9190611c84565b90505f808267ffffffffffffffff81111561053b5761053b611a57565b60405190808252806020026020018201604052801561059257816020015b6040805160a0810182525f808252602080830182905292820181905260608201819052608082015282525f199092019101816105595790505b5090505f5b848110156106735730600b5f6105ae846001611c97565b815260208101919091526040015f20600201546001600160a01b03160361066b575f6105db826001611c97565b5f818152600b6020908152604091829020825160a0810184528154815260018201546001600160a01b039081169382019390935260028201549092169282019290925260038201546060820152600482015460ff16151560808201528551929350909185908790811061065057610650611caa565b6020908102919091010152610666600186611c97565b945050505b600101610597565b50949350505050565b60605f61068860075490565b90505f80805b838110156106dc5733600b5f6106a5846001611c97565b815260208101919091526040015f20600201546001600160a01b0316036106d4576106d1600184611c97565b92505b60010161068e565b505f8267ffffffffffffffff8111156106f7576106f7611a57565b60405190808252806020026020018201604052801561074e57816020015b6040805160a0810182525f808252602080830182905292820181905260608201819052608082015282525f199092019101816107155790505b5090505f5b848110156106735733600b5f61076a846001611c97565b815260208101919091526040015f20600201546001600160a01b031603610827575f610797826001611c97565b5f818152600b6020908152604091829020825160a0810184528154815260018201546001600160a01b039081169382019390935260028201549092169282019290925260038201546060820152600482015460ff16151560808201528551929350909185908790811061080c5761080c611caa565b6020908102919091010152610822600186611c97565b945050505b600101610753565b6001600160a01b03821661085857604051633250574960e11b81525f60048201526024016104eb565b5f610864838333610f5a565b9050836001600160a01b0316816001600160a01b0316146108b2576040516364283d7b60e01b81526001600160a01b03808616600483015260248201849052821660448201526064016104eb565b50505050565b6108d283838360405180602001604052805f815250610b33565b505050565b60605f6108e360075490565b90505f80805b838110156109375733600b5f610900846001611c97565b815260208101919091526040015f20600101546001600160a01b03160361092f5761092c600184611c97565b92505b6001016108e9565b505f8267ffffffffffffffff81111561095257610952611a57565b6040519080825280602002602001820160405280156109a957816020015b6040805160a0810182525f808252602080830182905292820181905260608201819052608082015282525f199092019101816109705790505b5090505f5b848110156106735733600b5f6109c5846001611c97565b815260208101919091526040015f20600101546001600160a01b031603610a82575f6109f2826001611c97565b5f818152600b6020908152604091829020825160a0810184528154815260018201546001600160a01b039081169382019390935260028201549092169282019290925260038201546060820152600482015460ff161515608082015285519293509091859087908110610a6757610a67611caa565b6020908102919091010152610a7d600186611c97565b945050505b6001016109ae565b5f6103ba82610f15565b5f6001600160a01b038216610abe576040516322718ad960e21b81525f60048201526024016104eb565b506001600160a01b03165f9081526003602052604090205490565b5f610ae8600780546001019055565b5f610af260075490565b9050610afe338261104c565b610b0881856110ad565b610b1281846110fc565b9392505050565b6060600180546103ce90611c38565b61048133838361124f565b610b3e84848461082f565b6108b233858585856112ed565b5f818152600b6020526040902060030154348114610bd3576040805162461bcd60e51b81526020600482015260248101919091527f506c65617365207375626d6974207468652061736b696e67207072696365206960448201527f6e206f7264657220746f20636f6d706c6574652074686520707572636861736560648201526084016104eb565b5f828152600b602052604090206002810180546001600160a01b0319908116331790915560048201805460ff1916600190811790915590910180549091169055610c21600880546001019055565b610c2c303384611415565b600a546009546040516001600160a01b039092169181156108fc0291905f818181858888f19350505050158015610c65573d5f5f3e3d5ffd5b505f828152600b60205260408082206001015490516001600160a01b03909116913480156108fc02929091818181858888f193505050501580156108d2573d5f5f3e3d5ffd5b6060610cb682610f15565b505f8281526006602052604081208054610ccf90611c38565b80601f0160208091040260200160405190810160405280929190818152602001828054610cfb90611c38565b8015610d465780601f10610d1d57610100808354040283529160200191610d46565b820191905f5260205f20905b815481529060010190602001808311610d2957829003601f168201915b505050505090505f610d6260408051602081019091525f815290565b905080515f03610d73575092915050565b815115610da5578082604051602001610d8d929190611cd5565b60405160208183030381529060405292505050919050565b610dae846114c2565b949350505050565b5f828152600b60205260409020600201546001600160a01b03163314610e1e5760405162461bcd60e51b815260206004820152601a60248201527f4f6e6c79206974656d206f776e65722063616e20726573656c6c00000000000060448201526064016104eb565b6009543414610e3f5760405162461bcd60e51b81526004016104eb90611ce9565b5f828152600b6020526040902060048101805460ff19169055600381018290556001810180546001600160a01b031990811633179091556002909101805490911630179055610e8e6008611532565b610481333084611415565b6001600160a01b039182165f90815260056020908152604080832093909416825291909152205460ff1690565b5f6001600160e01b031982166380ac58cd60e01b1480610ef657506001600160e01b03198216635b5e139f60e01b145b806103ba57506301ffc9a760e01b6001600160e01b03198316146103ba565b5f818152600260205260408120546001600160a01b0316806103ba57604051637e27328960e01b8152600481018490526024016104eb565b6108d28383836001611588565b5f828152600260205260408120546001600160a01b0390811690831615610f8657610f8681848661168c565b6001600160a01b03811615610fc057610fa15f855f5f611588565b6001600160a01b0381165f90815260036020526040902080545f190190555b6001600160a01b03851615610fee576001600160a01b0385165f908152600360205260409020805460010190555b5f8481526002602052604080822080546001600160a01b0319166001600160a01b0389811691821790925591518793918516917fddf252ad1be2c89b69c2b068fc378daa952ba7f163c4a11628f55a4df523b3ef91a4949350505050565b6001600160a01b03821661107557604051633250574960e11b81525f60048201526024016104eb565b5f61108183835f610f5a565b90506001600160a01b038116156108d2576040516339e3563760e11b81525f60048201526024016104eb565b5f8281526006602052604090206110c48282611d71565b506040518281527ff8e1a15aba9398e019f0b49df1a4fde98ee17ae345cb5f6b5e2c27f5033e8ce79060200160405180910390a15050565b5f811161114b5760405162461bcd60e51b815260206004820152601c60248201527f5072696365206d757374206265206174206c656173742031207765690000000060448201526064016104eb565b600954341461116c5760405162461bcd60e51b81526004016104eb90611ce9565b6040805160a08101825283815233602080830182815230848601818152606086018881525f608088018181528b8252600b909652979097209551865591516001860180546001600160a01b03199081166001600160a01b0393841617909155925160028701805490941691161790915593516003840155516004909201805460ff1916921515929092179091556112039184611415565b604080513381523060208201529081018290525f606082015282907fb640004f1d14576d0c209e240cad0410e0d8c0c33a09375861fbadae2588a98d9060800160405180910390a25050565b6001600160a01b03821661128157604051630b61174360e31b81526001600160a01b03831660048201526024016104eb565b6001600160a01b038381165f81815260056020908152604080832094871680845294825291829020805460ff191686151590811790915591519182527f17307eab39ab6107e8899845ad3d59bd9653f200f220920489ca2b5937696c31910160405180910390a3505050565b6001600160a01b0383163b1561140e57604051630a85bd0160e11b81526001600160a01b0384169063150b7a029061132f908890889087908790600401611e2c565b6020604051808303815f875af1925050508015611369575060408051601f3d908101601f1916820190925261136691810190611e68565b60015b6113d0573d808015611396576040519150601f19603f3d011682016040523d82523d5f602084013e61139b565b606091505b5080515f036113c857604051633250574960e11b81526001600160a01b03851660048201526024016104eb565b805181602001fd5b6001600160e01b03198116630a85bd0160e11b1461140c57604051633250574960e11b81526001600160a01b03851660048201526024016104eb565b505b5050505050565b6001600160a01b03821661143e57604051633250574960e11b81525f60048201526024016104eb565b5f61144a83835f610f5a565b90506001600160a01b03811661147657604051637e27328960e01b8152600481018390526024016104eb565b836001600160a01b0316816001600160a01b0316146108b2576040516364283d7b60e01b81526001600160a01b03808616600483015260248201849052821660448201526064016104eb565b60606114cd82610f15565b505f6114e360408051602081019091525f815290565b90505f8151116115015760405180602001604052805f815250610b12565b8061150b846116f0565b60405160200161151c929190611cd5565b6040516020818303038152906040529392505050565b8054806115815760405162461bcd60e51b815260206004820152601c60248201527f436f756e7465723a2064656372656d656e7420756e646572666c6f770000000060448201526064016104eb565b5f19019055565b808061159c57506001600160a01b03821615155b1561165d575f6115ab84610f15565b90506001600160a01b038316158015906115d75750826001600160a01b0316816001600160a01b031614155b80156115ea57506115e88184610e99565b155b156116135760405163a9fbf51f60e01b81526001600160a01b03841660048201526024016104eb565b811561165b5783856001600160a01b0316826001600160a01b03167f8c5be1e5ebec7d5bd14f71427d1e84f3dd0314c0f7b2291e5b200ac8c7c3b92560405160405180910390a45b505b50505f90815260046020526040902080546001600160a01b0319166001600160a01b0392909216919091179055565b611697838383611780565b6108d2576001600160a01b0383166116c557604051637e27328960e01b8152600481018290526024016104eb565b60405163177e802f60e01b81526001600160a01b0383166004820152602481018290526044016104eb565b60605f6116fc836117e1565b60010190505f8167ffffffffffffffff81111561171b5761171b611a57565b6040519080825280601f01601f191660200182016040528015611745576020820181803683370190505b5090508181016020015b5f19016f181899199a1a9b1b9c1cb0b131b232b360811b600a86061a8153600a850494508461174f57509392505050565b5f6001600160a01b03831615801590610dae5750826001600160a01b0316846001600160a01b031614806117b957506117b98484610e99565b80610dae5750505f908152600460205260409020546001600160a01b03908116911614919050565b5f8072184f03e93ff9f4daa797ed6e38ed64bf6a1f0160401b831061181f5772184f03e93ff9f4daa797ed6e38ed64bf6a1f0160401b830492506040015b6d04ee2d6d415b85acef8100000000831061184b576d04ee2d6d415b85acef8100000000830492506020015b662386f26fc10000831061186957662386f26fc10000830492506010015b6305f5e1008310611881576305f5e100830492506008015b612710831061189557612710830492506004015b606483106118a7576064830492506002015b600a83106103ba5760010192915050565b6001600160e01b0319811681146118cd575f5ffd5b50565b5f602082840312156118e0575f5ffd5b8135610b12816118b8565b5f81518084528060208401602086015e5f602082860101526020601f19601f83011685010191505092915050565b602081525f610b1260208301846118eb565b5f6020828403121561193b575f5ffd5b5035919050565b80356001600160a01b0381168114611958575f5ffd5b919050565b5f5f6040838503121561196e575f5ffd5b61197783611942565b946020939093013593505050565b602080825282518282018190525f918401906040840190835b818110156119f9578351805184526020808201516001600160a01b039081168287015260408084015190911690860152606080830151908601526080918201511515918501919091529093019260a09092019160010161199e565b509095945050505050565b5f5f5f60608486031215611a16575f5ffd5b611a1f84611942565b9250611a2d60208501611942565b929592945050506040919091013590565b5f60208284031215611a4e575f5ffd5b610b1282611942565b634e487b7160e01b5f52604160045260245ffd5b5f5f67ffffffffffffffff841115611a8557611a85611a57565b50604051601f19601f85018116603f0116810181811067ffffffffffffffff82111715611ab457611ab4611a57565b604052838152905080828401851015611acb575f5ffd5b838360208301375f60208583010152509392505050565b5f5f60408385031215611af3575f5ffd5b823567ffffffffffffffff811115611b09575f5ffd5b8301601f81018513611b19575f5ffd5b611b2885823560208401611a6b565b95602094909401359450505050565b5f5f60408385031215611b48575f5ffd5b611b5183611942565b915060208301358015158114611b65575f5ffd5b809150509250929050565b5f5f5f5f60808587031215611b83575f5ffd5b611b8c85611942565b9350611b9a60208601611942565b925060408501359150606085013567ffffffffffffffff811115611bbc575f5ffd5b8501601f81018713611bcc575f5ffd5b611bdb87823560208401611a6b565b91505092959194509250565b5f5f60408385031215611bf8575f5ffd5b50508035926020909101359150565b5f5f60408385031215611c18575f5ffd5b611c2183611942565b9150611c2f60208401611942565b90509250929050565b600181811c90821680611c4c57607f821691505b602082108103611c6a57634e487b7160e01b5f52602260045260245ffd5b50919050565b634e487b7160e01b5f52601160045260245ffd5b818103818111156103ba576103ba611c70565b808201808211156103ba576103ba611c70565b634e487b7160e01b5f52603260045260245ffd5b5f81518060208401855e5f93019283525090919050565b5f610dae611ce38386611cbe565b84611cbe565b60208082526024908201527f5072696365206d75737420626520657175616c20746f206c697374696e6720706040820152637269636560e01b606082015260800190565b601f8211156108d257805f5260205f20601f840160051c81016020851015611d525750805b601f840160051c820191505b8181101561140e575f8155600101611d5e565b815167ffffffffffffffff811115611d8b57611d8b611a57565b611d9f81611d998454611c38565b84611d2d565b6020601f821160018114611dd1575f8315611dba5750848201515b5f19600385901b1c1916600184901b17845561140e565b5f84815260208120601f198516915b82811015611e005787850151825560209485019460019092019101611de0565b5084821015611e1d57868401515f19600387901b60f8161c191681555b50505050600190811b01905550565b6001600160a01b03858116825284166020820152604081018390526080606082018190525f90611e5e908301846118eb565b9695505050505050565b5f60208284031215611e78575f5ffd5b8151610b12816118b856fea2646970667358221220501c0ea47fd1cc88f5a17cbb215f3c11013a78d43c6abe54a59b18572228980c64736f6c634300081c0033",
    "linkReferences": {}
  },
  "methodIdentifiers": {
    "approve(address,uint256)": "095ea7b3",
    "balanceOf(address)": "70a08231",
    "createMarketSale(uint256)": "be9af536",
    "createToken(string,uint256)": "72b3b620",
    "fetchItemsListed()": "45f8fa80",
    "fetchMarketItems()": "0f08efe0",
    "fetchMyNFTs()": "202e3740",
    "getApproved(uint256)": "081812fc",
    "getListingPrice()": "12e85585",
    "isApprovedForAll(address,address)": "e985e9c5",
    "name()": "06fdde03",
    "ownerOf(uint256)": "6352211e",
    "resellToken(uint256,uint256)": "e219fc75",
    "safeTransferFrom(address,address,uint256)": "42842e0e",
    "safeTransferFrom(address,address,uint256,bytes)": "b88d4fde",
    "setApprovalForAll(address,bool)": "a22cb465",
    "supportsInterface(bytes4)": "01ffc9a7",
    "symbol()": "95d89b41",
    "tokenURI(uint256)": "c87b56dd",
    "transferFrom(address,address,uint256)": "23b872dd",
    "udateListingPrice(uint256)": "0d5bd58f"
  },
  "id": 23
}