{
  "abi": [
    {
      "type": "constructor",
      "inputs": [],
      "stateMutability": "nonpayable"
    },
    {
      "type": "function",
      "name": "approve",
      "inputs": [
        {
          "name": "to",
          "type": "address",
          "internalType": "address"
        },
        {
          "name": "tokenId",
          "type": "uint256",
          "internalType": "uint256"
        }
      ],
      "outputs": [],
      "stateMutability": "nonpayable"
    },
    {
      "type": "function",
      "name": "balanceOf",
      "inputs": [
        {
          "name": "owner",
          "type": "address",
          "internalType": "address"
        }
      ],
      "outputs": [
        {
          "name": "",
          "type": "uint256",
          "internalType": "uint256"
        }
      ],
      "stateMutability": "view"
    },
    {
      "type": "function",
      "name": "createMarketSale",
      "inputs": [
        {
          "name": "tokenId",
          "type": "uint256",
          "internalType": "uint256"
        }
      ],
      "outputs": [],
      "stateMutability": "payable"
    },
    {
      "type": "function",
      "name": "createToken",
      "inputs": [
        {
          "name": "tokenURI",
          "type": "string",
          "internalType": "string"
        },
        {
          "name": "price",
          "type": "uint256",
          "internalType": "uint256"
        }
      ],
      "outputs": [
        {
          "name": "",
          "type": "uint256",
          "internalType": "uint256"
        }
      ],
      "stateMutability": "payable"
    },
    {
      "type": "function",
      "name": "emergencyWithdrawToken",
      "inputs": [
        {
          "name": "tokenAddress",
          "type": "address",
          "internalType": "address"
        },
        {
          "name": "tokenId",
          "type": "uint256",
          "internalType": "uint256"
        }
      ],
      "outputs": [],
      "stateMutability": "nonpayable"
    },
    {
      "type": "function",
      "name": "fetchItemsListed",
      "inputs": [],
      "outputs": [
        {
          "name": "",
          "type": "tuple[]",
          "internalType": "struct NFTMarketplace.MarketItem[]",
          "components": [
            {
              "name": "tokenId",
              "type": "uint256",
              "internalType": "uint256"
            },
            {
              "name": "seller",
              "type": "address",
              "internalType": "address payable"
            },
            {
              "name": "owner",
              "type": "address",
              "internalType": "address payable"
            },
            {
              "name": "price",
              "type": "uint256",
              "internalType": "uint256"
            },
            {
              "name": "sold",
              "type": "bool",
              "internalType": "bool"
            }
          ]
        }
      ],
      "stateMutability": "view"
    },
    {
      "type": "function",
      "name": "fetchMarketItems",
      "inputs": [],
      "outputs": [
        {
          "name": "",
          "type": "tuple[]",
          "internalType": "struct NFTMarketplace.MarketItem[]",
          "components": [
            {
              "name": "tokenId",
              "type": "uint256",
              "internalType": "uint256"
            },
            {
              "name": "seller",
              "type": "address",
              "internalType": "address payable"
            },
            {
              "name": "owner",
              "type": "address",
              "internalType": "address payable"
            },
            {
              "name": "price",
              "type": "uint256",
              "internalType": "uint256"
            },
            {
              "name": "sold",
              "type": "bool",
              "internalType": "bool"
            }
          ]
        }
      ],
      "stateMutability": "view"
    },
    {
      "type": "function",
      "name": "fetchMyNFTs",
      "inputs": [],
      "outputs": [
        {
          "name": "",
          "type": "tuple[]",
          "internalType": "struct NFTMarketplace.MarketItem[]",
          "components": [
            {
              "name": "tokenId",
              "type": "uint256",
              "internalType": "uint256"
            },
            {
              "name": "seller",
              "type": "address",
              "internalType": "address payable"
            },
            {
              "name": "owner",
              "type": "address",
              "internalType": "address payable"
            },
            {
              "name": "price",
              "type": "uint256",
              "internalType": "uint256"
            },
            {
              "name": "sold",
              "type": "bool",
              "internalType": "bool"
            }
          ]
        }
      ],
      "stateMutability": "view"
    },
    {
      "type": "function",
      "name": "getApproved",
      "inputs": [
        {
          "name": "tokenId",
          "type": "uint256",
          "internalType": "uint256"
        }
      ],
      "outputs": [
        {
          "name": "",
          "type": "address",
          "internalType": "address"
        }
      ],
      "stateMutability": "view"
    },
    {
      "type": "function",
      "name": "getListingPrice",
      "inputs": [],
      "outputs": [
        {
          "name": "",
          "type": "uint256",
          "internalType": "uint256"
        }
      ],
      "stateMutability": "view"
    },
    {
      "type": "function",
      "name": "isApprovedForAll",
      "inputs": [
        {
          "name": "owner",
          "type": "address",
          "internalType": "address"
        },
        {
          "name": "operator",
          "type": "address",
          "internalType": "address"
        }
      ],
      "outputs": [
        {
          "name": "",
          "type": "bool",
          "internalType": "bool"
        }
      ],
      "stateMutability": "view"
    },
    {
      "type": "function",
      "name": "listingPrice",
      "inputs": [],
      "outputs": [
        {
          "name": "",
          "type": "uint256",
          "internalType": "uint256"
        }
      ],
      "stateMutability": "view"
    },
    {
      "type": "function",
      "name": "name",
      "inputs": [],
      "outputs": [
        {
          "name": "",
          "type": "string",
          "internalType": "string"
        }
      ],
      "stateMutability": "view"
    },
    {
      "type": "function",
      "name": "owner",
      "inputs": [],
      "outputs": [
        {
          "name": "",
          "type": "address",
          "internalType": "address payable"
        }
      ],
      "stateMutability": "view"
    },
    {
      "type": "function",
      "name": "ownerOf",
      "inputs": [
        {
          "name": "tokenId",
          "type": "uint256",
          "internalType": "uint256"
        }
      ],
      "outputs": [
        {
          "name": "",
          "type": "address",
          "internalType": "address"
        }
      ],
      "stateMutability": "view"
    },
    {
      "type": "function",
      "name": "resellToken",
      "inputs": [
        {
          "name": "tokenId",
          "type": "uint256",
          "internalType": "uint256"
        },
        {
          "name": "price",
          "type": "uint256",
          "internalType": "uint256"
        }
      ],
      "outputs": [],
      "stateMutability": "payable"
    },
    {
      "type": "function",
      "name": "safeTransferFrom",
      "inputs": [
        {
          "name": "from",
          "type": "address",
          "internalType": "address"
        },
        {
          "name": "to",
          "type": "address",
          "internalType": "address"
        },
        {
          "name": "tokenId",
          "type": "uint256",
          "internalType": "uint256"
        }
      ],
      "outputs": [],
      "stateMutability": "nonpayable"
    },
    {
      "type": "function",
      "name": "safeTransferFrom",
      "inputs": [
        {
          "name": "from",
          "type": "address",
          "internalType": "address"
        },
        {
          "name": "to",
          "type": "address",
          "internalType": "address"
        },
        {
          "name": "tokenId",
          "type": "uint256",
          "internalType": "uint256"
        },
        {
          "name": "data",
          "type": "bytes",
          "internalType": "bytes"
        }
      ],
      "outputs": [],
      "stateMutability": "nonpayable"
    },
    {
      "type": "function",
      "name": "setApprovalForAll",
      "inputs": [
        {
          "name": "operator",
          "type": "address",
          "internalType": "address"
        },
        {
          "name": "approved",
          "type": "bool",
          "internalType": "bool"
        }
      ],
      "outputs": [],
      "stateMutability": "nonpayable"
    },
    {
      "type": "function",
      "name": "supportsInterface",
      "inputs": [
        {
          "name": "interfaceId",
          "type": "bytes4",
          "internalType": "bytes4"
        }
      ],
      "outputs": [
        {
          "name": "",
          "type": "bool",
          "internalType": "bool"
        }
      ],
      "stateMutability": "view"
    },
    {
      "type": "function",
      "name": "symbol",
      "inputs": [],
      "outputs": [
        {
          "name": "",
          "type": "string",
          "internalType": "string"
        }
      ],
      "stateMutability": "view"
    },
    {
      "type": "function",
      "name": "tokenURI",
      "inputs": [
        {
          "name": "tokenId",
          "type": "uint256",
          "internalType": "uint256"
        }
      ],
      "outputs": [
        {
          "name": "",
          "type": "string",
          "internalType": "string"
        }
      ],
      "stateMutability": "view"
    },
    {
      "type": "function",
      "name": "transferFrom",
      "inputs": [
        {
          "name": "from",
          "type": "address",
          "internalType": "address"
        },
        {
          "name": "to",
          "type": "address",
          "internalType": "address"
        },
        {
          "name": "tokenId",
          "type": "uint256",
          "internalType": "uint256"
        }
      ],
      "outputs": [],
      "stateMutability": "nonpayable"
    },
    {
      "type": "function",
      "name": "updateListingPrice",
      "inputs": [
        {
          "name": "_listingPrice",
          "type": "uint256",
          "internalType": "uint256"
        }
      ],
      "outputs": [],
      "stateMutability": "payable"
    },
    {
      "type": "function",
      "name": "withdraw",
      "inputs": [],
      "outputs": [],
      "stateMutability": "nonpayable"
    },
    {
      "type": "event",
      "name": "Approval",
      "inputs": [
        {
          "name": "owner",
          "type": "address",
          "indexed": true,
          "internalType": "address"
        },
        {
          "name": "approved",
          "type": "address",
          "indexed": true,
          "internalType": "address"
        },
        {
          "name": "tokenId",
          "type": "uint256",
          "indexed": true,
          "internalType": "uint256"
        }
      ],
      "anonymous": false
    },
    {
      "type": "event",
      "name": "ApprovalForAll",
      "inputs": [
        {
          "name": "owner",
          "type": "address",
          "indexed": true,
          "internalType": "address"
        },
        {
          "name": "operator",
          "type": "address",
          "indexed": true,
          "internalType": "address"
        },
        {
          "name": "approved",
          "type": "bool",
          "indexed": false,
          "internalType": "bool"
        }
      ],
      "anonymous": false
    },
    {
      "type": "event",
      "name": "BatchMetadataUpdate",
      "inputs": [
        {
          "name": "_fromTokenId",
          "type": "uint256",
          "indexed": false,
          "internalType": "uint256"
        },
        {
          "name": "_toTokenId",
          "type": "uint256",
          "indexed": false,
          "internalType": "uint256"
        }
      ],
      "anonymous": false
    },
    {
      "type": "event",
      "name": "ListingPriceUpdated",
      "inputs": [
        {
          "name": "newPrice",
          "type": "uint256",
          "indexed": false,
          "internalType": "uint256"
        }
      ],
      "anonymous": false
    },
    {
      "type": "event",
      "name": "MarketItemCreated",
      "inputs": [
        {
          "name": "tokenId",
          "type": "uint256",
          "indexed": true,
          "internalType": "uint256"
        },
        {
          "name": "seller",
          "type": "address",
          "indexed": false,
          "internalType": "address"
        },
        {
          "name": "owner",
          "type": "address",
          "indexed": false,
          "internalType": "address"
        },
        {
          "name": "price",
          "type": "uint256",
          "indexed": false,
          "internalType": "uint256"
        },
        {
          "name": "sold",
          "type": "bool",
          "indexed": false,
          "internalType": "bool"
        }
      ],
      "anonymous": false
    },
    {
      "type": "event",
      "name": "MarketItemResold",
      "inputs": [
        {
          "name": "tokenId",
          "type": "uint256",
          "indexed": true,
          "internalType": "uint256"
        },
        {
          "name": "seller",
          "type": "address",
          "indexed": false,
          "internalType": "address"
        },
        {
          "name": "newPrice",
          "type": "uint256",
          "indexed": false,
          "internalType": "uint256"
        }
      ],
      "anonymous": false
    },
    {
      "type": "event",
      "name": "MetadataUpdate",
      "inputs": [
        {
          "name": "_tokenId",
          "type": "uint256",
          "indexed": false,
          "internalType": "uint256"
        }
      ],
      "anonymous": false
    },
    {
      "type": "event",
      "name": "Purchase",
      "inputs": [
        {
          "name": "buyer",
          "type": "address",
          "indexed": true,
          "internalType": "address"
        },
        {
          "name": "tokenId",
          "type": "uint256",
          "indexed": true,
          "internalType": "uint256"
        },
        {
          "name": "price",
          "type": "uint256",
          "indexed": false,
          "internalType": "uint256"
        }
      ],
      "anonymous": false
    },
    {
      "type": "event",
      "name": "Transfer",
      "inputs": [
        {
          "name": "from",
          "type": "address",
          "indexed": true,
          "internalType": "address"
        },
        {
          "name": "to",
          "type": "address",
          "indexed": true,
          "internalType": "address"
        },
        {
          "name": "tokenId",
          "type": "uint256",
          "indexed": true,
          "internalType": "uint256"
        }
      ],
      "anonymous": false
    },
    {
      "type": "error",
      "name": "ERC721IncorrectOwner",
      "inputs": [
        {
          "name": "sender",
          "type": "address",
          "internalType": "address"
        },
        {
          "name": "tokenId",
          "type": "uint256",
          "internalType": "uint256"
        },
        {
          "name": "owner",
          "type": "address",
          "internalType": "address"
        }
      ]
    },
    {
      "type": "error",
      "name": "ERC721InsufficientApproval",
      "inputs": [
        {
          "name": "operator",
          "type": "address",
          "internalType": "address"
        },
        {
          "name": "tokenId",
          "type": "uint256",
          "internalType": "uint256"
        }
      ]
    },
    {
      "type": "error",
      "name": "ERC721InvalidApprover",
      "inputs": [
        {
          "name": "approver",
          "type": "address",
          "internalType": "address"
        }
      ]
    },
    {
      "type": "error",
      "name": "ERC721InvalidOperator",
      "inputs": [
        {
          "name": "operator",
          "type": "address",
          "internalType": "address"
        }
      ]
    },
    {
      "type": "error",
      "name": "ERC721InvalidOwner",
      "inputs": [
        {
          "name": "owner",
          "type": "address",
          "internalType": "address"
        }
      ]
    },
    {
      "type": "error",
      "name": "ERC721InvalidReceiver",
      "inputs": [
        {
          "name": "receiver",
          "type": "address",
          "internalType": "address"
        }
      ]
    },
    {
      "type": "error",
      "name": "ERC721InvalidSender",
      "inputs": [
        {
          "name": "sender",
          "type": "address",
          "internalType": "address"
        }
      ]
    },
    {
      "type": "error",
      "name": "ERC721NonexistentToken",
      "inputs": [
        {
          "name": "tokenId",
          "type": "uint256",
          "internalType": "uint256"
        }
      ]
    },
    {
      "type": "error",
      "name": "FailedCall",
      "inputs": []
    },
    {
      "type": "error",
      "name": "InsufficientBalance",
      "inputs": [
        {
          "name": "balance",
          "type": "uint256",
          "internalType": "uint256"
        },
        {
          "name": "needed",
          "type": "uint256",
          "internalType": "uint256"
        }
      ]
    },
    {
      "type": "error",
      "name": "ReentrancyGuardReentrantCall",
      "inputs": []
    }
  ],
  "bytecode": {
    "object": "0x60806040526658d15e17628000600a5534801561001a575f5ffd5b506040518060400160405280600f81526020016e4d6574615665727365546f6b656e7360881b8152506040518060400160405280600381526020016213559560ea1b815250815f908161006d9190610131565b50600161007a8282610131565b5050600160075550600b80546001600160a01b031916331790556101eb565b634e487b7160e01b5f52604160045260245ffd5b600181811c908216806100c157607f821691505b6020821081036100df57634e487b7160e01b5f52602260045260245ffd5b50919050565b601f82111561012c57805f5260205f20601f840160051c8101602085101561010a5750805b601f840160051c820191505b81811015610129575f8155600101610116565b50505b505050565b81516001600160401b0381111561014a5761014a610099565b61015e8161015884546100ad565b846100e5565b6020601f821160018114610190575f83156101795750848201515b5f19600385901b1c1916600184901b178455610129565b5f84815260208120601f198516915b828110156101bf578785015182556020948501946001909201910161019f565b50848210156101dc57868401515f19600387901b60f8161c191681555b50505050600190811b01905550565b6123f6806101f85f395ff3fe608060405260043610610161575f3560e01c806370a08231116100cd578063ae677aa311610087578063c78f19f911610062578063c78f19f9146103d2578063c87b56dd146103e7578063e219fc7514610406578063e985e9c514610419575f5ffd5b8063ae677aa31461038d578063b88d4fde146103a0578063be9af536146103bf575f5ffd5b806370a08231146102ea57806372b3b620146103095780638da5cb5b1461031c57806395d89b411461033b578063a22cb4651461034f578063a4c3b0911461036e575f5ffd5b8063202e37401161011e578063202e37401461025157806323b872dd146102655780633ccfd60b1461028457806342842e0e1461029857806345f8fa80146102b75780636352211e146102cb575f5ffd5b806301ffc9a71461016557806306fdde0314610199578063081812fc146101ba578063095ea7b3146101f15780630f08efe01461021257806312e8558514610233575b5f5ffd5b348015610170575f5ffd5b5061018461017f366004611e15565b610438565b60405190151581526020015b60405180910390f35b3480156101a4575f5ffd5b506101ad610462565b6040516101909190611e5e565b3480156101c5575f5ffd5b506101d96101d4366004611e70565b6104f1565b6040516001600160a01b039091168152602001610190565b3480156101fc575f5ffd5b5061021061020b366004611ea2565b610518565b005b34801561021d575f5ffd5b50610226610527565b6040516101909190611eca565b34801561023e575f5ffd5b50600a545b604051908152602001610190565b34801561025c575f5ffd5b50610226610693565b348015610270575f5ffd5b5061021061027f366004611f49565b61082d565b34801561028f575f5ffd5b506102106108bb565b3480156102a3575f5ffd5b506102106102b2366004611f49565b610955565b3480156102c2575f5ffd5b50610226610974565b3480156102d6575f5ffd5b506101d96102e5366004611e70565b610b0e565b3480156102f5575f5ffd5b50610243610304366004611f83565b610b18565b610243610317366004612027565b610b5d565b348015610327575f5ffd5b50600b546101d9906001600160a01b031681565b348015610346575f5ffd5b506101ad610c85565b34801561035a575f5ffd5b5061021061036936600461207c565b610c94565b348015610379575f5ffd5b50610210610388366004611ea2565b610c9f565b61021061039b366004611e70565b610d42565b3480156103ab575f5ffd5b506102106103ba3660046120b5565b610df6565b6102106103cd366004611e70565b610e0e565b3480156103dd575f5ffd5b50610243600a5481565b3480156103f2575f5ffd5b506101ad610401366004611e70565b6110c6565b61021061041436600461212c565b6111d1565b348015610424575f5ffd5b5061018461043336600461214c565b611371565b5f6001600160e01b03198216632483248360e11b148061045c575061045c8261139e565b92915050565b60605f80546104709061217d565b80601f016020809104026020016040519081016040528092919081815260200182805461049c9061217d565b80156104e75780601f106104be576101008083540402835291602001916104e7565b820191905f5260205f20905b8154815290600101906020018083116104ca57829003601f168201915b5050505050905090565b5f6104fb826113ed565b505f828152600460205260409020546001600160a01b031661045c565b610523828233611425565b5050565b60605f61053360085490565b90505f61053f60095490565b61054990836121c9565b90505f8167ffffffffffffffff81111561056557610565611f9c565b6040519080825280602002602001820160405280156105bc57816020015b6040805160a0810182525f808252602080830182905292820181905260608201819052608082015282525f199092019101816105835790505b5090505f60015b848111610689575f818152600c6020526040902060020154306001600160a01b0390911603610677575f818152600c6020908152604091829020825160a0810184528154815260018201546001600160a01b039081169382019390935260028201549092169282019290925260038201546060820152600482015460ff1615156080820152845185908590811061065c5761065c6121dc565b60200260200101819052508280610672906121f0565b935050505b80610681816121f0565b9150506105c3565b5090949350505050565b60605f61069f60085490565b90505f60015b8281116106ee575f818152600c6020526040902060020154336001600160a01b03909116036106dc57816106d8816121f0565b9250505b806106e6816121f0565b9150506106a5565b505f8167ffffffffffffffff81111561070957610709611f9c565b60405190808252806020026020018201604052801561076057816020015b6040805160a0810182525f808252602080830182905292820181905260608201819052608082015282525f199092019101816107275790505b5090505f60015b848111610689575f818152600c6020526040902060020154336001600160a01b039091160361081b575f818152600c6020908152604091829020825160a0810184528154815260018201546001600160a01b039081169382019390935260028201549092169282019290925260038201546060820152600482015460ff16151560808201528451859085908110610800576108006121dc565b60200260200101819052508280610816906121f0565b935050505b80610825816121f0565b915050610767565b6001600160a01b03821661085b57604051633250574960e11b81525f60048201526024015b60405180910390fd5b5f610867838333611432565b9050836001600160a01b0316816001600160a01b0316146108b5576040516364283d7b60e01b81526001600160a01b0380861660048301526024820184905282166044820152606401610852565b50505050565b600b546001600160a01b031633146108e55760405162461bcd60e51b815260040161085290612208565b6108ed611524565b47806109325760405162461bcd60e51b81526020600482015260146024820152734e6f2066756e647320746f20776974686472617760601b6044820152606401610852565b600b54610948906001600160a01b03168261154e565b506109536001600755565b565b61096f83838360405180602001604052805f815250610df6565b505050565b60605f61098060085490565b90505f60015b8281116109cf575f818152600c6020526040902060010154336001600160a01b03909116036109bd57816109b9816121f0565b9250505b806109c7816121f0565b915050610986565b505f8167ffffffffffffffff8111156109ea576109ea611f9c565b604051908082528060200260200182016040528015610a4157816020015b6040805160a0810182525f808252602080830182905292820181905260608201819052608082015282525f19909201910181610a085790505b5090505f60015b848111610689575f818152600c6020526040902060010154336001600160a01b0390911603610afc575f818152600c6020908152604091829020825160a0810184528154815260018201546001600160a01b039081169382019390935260028201549092169282019290925260038201546060820152600482015460ff16151560808201528451859085908110610ae157610ae16121dc565b60200260200101819052508280610af7906121f0565b935050505b80610b06816121f0565b915050610a48565b5f61045c826113ed565b5f6001600160a01b038216610b42576040516322718ad960e21b81525f6004820152602401610852565b506001600160a01b03165f9081526003602052604090205490565b5f610b66611524565b5f835111610ba85760405162461bcd60e51b815260206004820152600f60248201526e456d70747920746f6b656e2055524960881b6044820152606401610852565b5f8211610bf75760405162461bcd60e51b815260206004820152601c60248201527f5072696365206d757374206265206174206c65617374203120776569000000006044820152606401610852565b600a543414610c415760405162461bcd60e51b81526020600482015260166024820152754d75737420706179206c697374696e6720707269636560501b6044820152606401610852565b610c4f600880546001019055565b5f610c5960085490565b9050610c6533826115da565b610c6f818561163b565b610c79818461168a565b905061045c6001600755565b6060600180546104709061217d565b61052333838361176d565b600b546001600160a01b03163314610cc95760405162461bcd60e51b815260040161085290612208565b610cd1611524565b600b546040516323b872dd60e01b81523060048201526001600160a01b03918216602482015260448101839052908316906323b872dd906064015f604051808303815f87803b158015610d22575f5ffd5b505af1158015610d34573d5f5f3e3d5ffd5b505050506105236001600755565b600b546001600160a01b03163314610d6c5760405162461bcd60e51b815260040161085290612208565b5f8111610dbb5760405162461bcd60e51b815260206004820152601c60248201527f5072696365206d7573742062652067726561746572207468616e2030000000006044820152606401610852565b600a8190556040518181527f661c8d2e494b21e778d6b19ffb42ca00ee63062be7f9eb28af0850e01a9cf2149060200160405180910390a150565b610e0184848461082d565b6108b5338585858561180b565b610e16611524565b5f818152600c60205260409020600381015460018201546001600160a01b0316348214610e855760405162461bcd60e51b815260206004820152601e60248201527f506c65617365207375626d6974207468652061736b696e6720707269636500006044820152606401610852565b6001600160a01b038116610ecf5760405162461bcd60e51b81526020600482015260116024820152704974656d206e6f7420666f722073616c6560781b6044820152606401610852565b600a548211610f2f5760405162461bcd60e51b815260206004820152602660248201527f5072696365206d7573742062652067726561746572207468616e206c697374696044820152656e672066656560d01b6064820152608401610852565b5f600a5483610f3e91906121c9565b90505f826001600160a01b0316826040515f6040518083038185875af1925050503d805f8114610f89576040519150601f19603f3d011682016040523d82523d5f602084013e610f8e565b606091505b5050600b54600a546040519293505f926001600160a01b03909216918381818185875af1925050503d805f8114610fe0576040519150601f19603f3d011682016040523d82523d5f602084013e610fe5565b606091505b50509050818015610ff35750805b6110315760405162461bcd60e51b815260206004820152600f60248201526e151c985b9cd9995c8819985a5b1959608a1b6044820152606401610852565b6002860180546001600160a01b0319908116331790915560048701805460ff19166001908117909155870180549091169055611071600980546001019055565b61107c303389611933565b604051858152879033907f12cb4648cf3058b17ceeb33e579f8b0bc269fe0843f3900b8e24b6c54871703c9060200160405180910390a35050505050506110c36001600755565b50565b60606110d1826113ed565b505f82815260066020526040812080546110ea9061217d565b80601f01602080910402602001604051908101604052809291908181526020018280546111169061217d565b80156111615780601f1061113857610100808354040283529160200191611161565b820191905f5260205f20905b81548152906001019060200180831161114457829003601f168201915b505050505090505f61117d60408051602081019091525f815290565b905080515f0361118e575092915050565b8151156111c05780826040516020016111a8929190612256565b60405160208183030381529060405292505050919050565b6111c9846119e0565b949350505050565b6111d9611524565b336111e383610b0e565b6001600160a01b0316146112395760405162461bcd60e51b815260206004820152601a60248201527f4f6e6c79206974656d206f776e65722063616e20726573656c6c0000000000006044820152606401610852565b600a5434146112835760405162461bcd60e51b81526020600482015260166024820152754d75737420706179206c697374696e6720707269636560501b6044820152606401610852565b5f81116112d25760405162461bcd60e51b815260206004820152601c60248201527f5072696365206d757374206265206174206c65617374203120776569000000006044820152606401610852565b5f828152600c6020526040902060048101805460ff19169055600381018290556001810180546001600160a01b0319908116331790915560029091018054909116301790556113216009611a51565b61132c333084611933565b604080513381526020810183905283917f65d61cf1e678f9500873ed3885cf2aca19e36b2135e77d37818c8443c47ea491910160405180910390a26105236001600755565b6001600160a01b039182165f90815260056020908152604080832093909416825291909152205460ff1690565b5f6001600160e01b031982166380ac58cd60e01b14806113ce57506001600160e01b03198216635b5e139f60e01b145b8061045c57506301ffc9a760e01b6001600160e01b031983161461045c565b5f818152600260205260408120546001600160a01b03168061045c57604051637e27328960e01b815260048101849052602401610852565b61096f8383836001611aa7565b5f828152600260205260408120546001600160a01b039081169083161561145e5761145e818486611bab565b6001600160a01b03811615611498576114795f855f5f611aa7565b6001600160a01b0381165f90815260036020526040902080545f190190555b6001600160a01b038516156114c6576001600160a01b0385165f908152600360205260409020805460010190555b5f8481526002602052604080822080546001600160a01b0319166001600160a01b0389811691821790925591518793918516917fddf252ad1be2c89b69c2b068fc378daa952ba7f163c4a11628f55a4df523b3ef91a4949350505050565b60026007540361154757604051633ee5aeb560e01b815260040160405180910390fd5b6002600755565b804710156115785760405163cf47918160e01b815247600482015260248101829052604401610852565b5f5f836001600160a01b0316836040515f6040518083038185875af1925050503d805f81146115c2576040519150601f19603f3d011682016040523d82523d5f602084013e6115c7565b606091505b5091509150816108b5576108b581611c0f565b6001600160a01b03821661160357604051633250574960e11b81525f6004820152602401610852565b5f61160f83835f611432565b90506001600160a01b0381161561096f576040516339e3563760e11b81525f6004820152602401610852565b5f82815260066020526040902061165282826122ae565b506040518281527ff8e1a15aba9398e019f0b49df1a4fde98ee17ae345cb5f6b5e2c27f5033e8ce79060200160405180910390a15050565b6040805160a08101825283815233602080830182815230848601818152606086018881525f608088018181528b8252600c909652979097209551865591516001860180546001600160a01b03199081166001600160a01b0393841617909155925160028701805490941691161790915593516003840155516004909201805460ff1916921515929092179091556117219184611933565b604080513381523060208201529081018290525f606082015282907fb640004f1d14576d0c209e240cad0410e0d8c0c33a09375861fbadae2588a98d9060800160405180910390a25050565b6001600160a01b03821661179f57604051630b61174360e31b81526001600160a01b0383166004820152602401610852565b6001600160a01b038381165f81815260056020908152604080832094871680845294825291829020805460ff191686151590811790915591519182527f17307eab39ab6107e8899845ad3d59bd9653f200f220920489ca2b5937696c31910160405180910390a3505050565b6001600160a01b0383163b1561192c57604051630a85bd0160e11b81526001600160a01b0384169063150b7a029061184d908890889087908790600401612369565b6020604051808303815f875af1925050508015611887575060408051601f3d908101601f19168201909252611884918101906123a5565b60015b6118ee573d8080156118b4576040519150601f19603f3d011682016040523d82523d5f602084013e6118b9565b606091505b5080515f036118e657604051633250574960e11b81526001600160a01b0385166004820152602401610852565b805181602001fd5b6001600160e01b03198116630a85bd0160e11b1461192a57604051633250574960e11b81526001600160a01b0385166004820152602401610852565b505b5050505050565b6001600160a01b03821661195c57604051633250574960e11b81525f6004820152602401610852565b5f61196883835f611432565b90506001600160a01b03811661199457604051637e27328960e01b815260048101839052602401610852565b836001600160a01b0316816001600160a01b0316146108b5576040516364283d7b60e01b81526001600160a01b0380861660048301526024820184905282166044820152606401610852565b60606119eb826113ed565b505f611a0160408051602081019091525f815290565b90505f815111611a1f5760405180602001604052805f815250611a4a565b80611a2984611c38565b604051602001611a3a929190612256565b6040516020818303038152906040525b9392505050565b805480611aa05760405162461bcd60e51b815260206004820152601c60248201527f436f756e7465723a2064656372656d656e7420756e646572666c6f77000000006044820152606401610852565b5f19019055565b8080611abb57506001600160a01b03821615155b15611b7c575f611aca846113ed565b90506001600160a01b03831615801590611af65750826001600160a01b0316816001600160a01b031614155b8015611b095750611b078184611371565b155b15611b325760405163a9fbf51f60e01b81526001600160a01b0384166004820152602401610852565b8115611b7a5783856001600160a01b0316826001600160a01b03167f8c5be1e5ebec7d5bd14f71427d1e84f3dd0314c0f7b2291e5b200ac8c7c3b92560405160405180910390a45b505b50505f90815260046020526040902080546001600160a01b0319166001600160a01b0392909216919091179055565b611bb6838383611cc8565b61096f576001600160a01b038316611be457604051637e27328960e01b815260048101829052602401610852565b60405163177e802f60e01b81526001600160a01b038316600482015260248101829052604401610852565b805115611c1f5780518082602001fd5b60405163d6bda27560e01b815260040160405180910390fd5b60605f611c4483611d29565b60010190505f8167ffffffffffffffff811115611c6357611c63611f9c565b6040519080825280601f01601f191660200182016040528015611c8d576020820181803683370190505b5090508181016020015b5f19016f181899199a1a9b1b9c1cb0b131b232b360811b600a86061a8153600a8504945084611c9757509392505050565b5f6001600160a01b038316158015906111c95750826001600160a01b0316846001600160a01b03161480611d015750611d018484611371565b806111c95750505f908152600460205260409020546001600160a01b03908116911614919050565b5f8072184f03e93ff9f4daa797ed6e38ed64bf6a1f0160401b8310611d675772184f03e93ff9f4daa797ed6e38ed64bf6a1f0160401b830492506040015b6d04ee2d6d415b85acef81000000008310611d93576d04ee2d6d415b85acef8100000000830492506020015b662386f26fc100008310611db157662386f26fc10000830492506010015b6305f5e1008310611dc9576305f5e100830492506008015b6127108310611ddd57612710830492506004015b60648310611def576064830492506002015b600a831061045c5760010192915050565b6001600160e01b0319811681146110c3575f5ffd5b5f60208284031215611e25575f5ffd5b8135611a4a81611e00565b5f81518084528060208401602086015e5f602082860101526020601f19601f83011685010191505092915050565b602081525f611a4a6020830184611e30565b5f60208284031215611e80575f5ffd5b5035919050565b80356001600160a01b0381168114611e9d575f5ffd5b919050565b5f5f60408385031215611eb3575f5ffd5b611ebc83611e87565b946020939093013593505050565b602080825282518282018190525f918401906040840190835b81811015611f3e578351805184526020808201516001600160a01b039081168287015260408084015190911690860152606080830151908601526080918201511515918501919091529093019260a090920191600101611ee3565b509095945050505050565b5f5f5f60608486031215611f5b575f5ffd5b611f6484611e87565b9250611f7260208501611e87565b929592945050506040919091013590565b5f60208284031215611f93575f5ffd5b611a4a82611e87565b634e487b7160e01b5f52604160045260245ffd5b5f5f67ffffffffffffffff841115611fca57611fca611f9c565b50604051601f19601f85018116603f0116810181811067ffffffffffffffff82111715611ff957611ff9611f9c565b604052838152905080828401851015612010575f5ffd5b838360208301375f60208583010152509392505050565b5f5f60408385031215612038575f5ffd5b823567ffffffffffffffff81111561204e575f5ffd5b8301601f8101851361205e575f5ffd5b61206d85823560208401611fb0565b95602094909401359450505050565b5f5f6040838503121561208d575f5ffd5b61209683611e87565b9150602083013580151581146120aa575f5ffd5b809150509250929050565b5f5f5f5f608085870312156120c8575f5ffd5b6120d185611e87565b93506120df60208601611e87565b925060408501359150606085013567ffffffffffffffff811115612101575f5ffd5b8501601f81018713612111575f5ffd5b61212087823560208401611fb0565b91505092959194509250565b5f5f6040838503121561213d575f5ffd5b50508035926020909101359150565b5f5f6040838503121561215d575f5ffd5b61216683611e87565b915061217460208401611e87565b90509250929050565b600181811c9082168061219157607f821691505b6020821081036121af57634e487b7160e01b5f52602260045260245ffd5b50919050565b634e487b7160e01b5f52601160045260245ffd5b8181038181111561045c5761045c6121b5565b634e487b7160e01b5f52603260045260245ffd5b5f60018201612201576122016121b5565b5060010190565b60208082526018908201527f4f6e6c79206f776e65722063616e2063616c6c20746869730000000000000000604082015260600190565b5f81518060208401855e5f93019283525090919050565b5f6111c9612264838661223f565b8461223f565b601f82111561096f57805f5260205f20601f840160051c8101602085101561228f5750805b601f840160051c820191505b8181101561192c575f815560010161229b565b815167ffffffffffffffff8111156122c8576122c8611f9c565b6122dc816122d6845461217d565b8461226a565b6020601f82116001811461230e575f83156122f75750848201515b5f19600385901b1c1916600184901b17845561192c565b5f84815260208120601f198516915b8281101561233d578785015182556020948501946001909201910161231d565b508482101561235a57868401515f19600387901b60f8161c191681555b50505050600190811b01905550565b6001600160a01b03858116825284166020820152604081018390526080606082018190525f9061239b90830184611e30565b9695505050505050565b5f602082840312156123b5575f5ffd5b8151611a4a81611e0056fea26469706673582212201b9fe891626d511f96e8cb1346c9ada101c7510f15d700e6b4941ea9f6e17cc164736f6c634300081c0033",
    "linkReferences": {}
  },
  "methodIdentifiers": {
    "approve(address,uint256)": "095ea7b3",
    "balanceOf(address)": "70a08231",
    "createMarketSale(uint256)": "be9af536",
    "createToken(string,uint256)": "72b3b620",
    "emergencyWithdrawToken(address,uint256)": "a4c3b091",
    "fetchItemsListed()": "45f8fa80",
    "fetchMarketItems()": "0f08efe0",
    "fetchMyNFTs()": "202e3740",
    "getApproved(uint256)": "081812fc",
    "getListingPrice()": "12e85585",
    "isApprovedForAll(address,address)": "e985e9c5",
    "listingPrice()": "c78f19f9",
    "name()": "06fdde03",
    "owner()": "8da5cb5b",
    "ownerOf(uint256)": "6352211e",
    "resellToken(uint256,uint256)": "e219fc75",
    "safeTransferFrom(address,address,uint256)": "42842e0e",
    "safeTransferFrom(address,address,uint256,bytes)": "b88d4fde",
    "setApprovalForAll(address,bool)": "a22cb465",
    "supportsInterface(bytes4)": "01ffc9a7",
    "symbol()": "95d89b41",
    "tokenURI(uint256)": "c87b56dd",
    "transferFrom(address,address,uint256)": "23b872dd",
    "updateListingPrice(uint256)": "ae677aa3",
    "withdraw()": "3ccfd60b"
  },
  "id": 22
}